{
	"contracts/LibDemo.sol": {
		"LibDemo": {
			"abi": [
				{
					"inputs": [
						{
							"internalType": "uint256[]",
							"name": "array",
							"type": "uint256[]"
						},
						{
							"internalType": "uint256",
							"name": "el",
							"type": "uint256"
						}
					],
					"name": "inArray",
					"outputs": [
						{
							"internalType": "bool",
							"name": "",
							"type": "bool"
						}
					],
					"stateMutability": "pure",
					"type": "function"
				},
				{
					"inputs": [
						{
							"internalType": "string",
							"name": "str1",
							"type": "string"
						},
						{
							"internalType": "string",
							"name": "str2",
							"type": "string"
						}
					],
					"name": "runnerStr",
					"outputs": [
						{
							"internalType": "bool",
							"name": "",
							"type": "bool"
						}
					],
					"stateMutability": "pure",
					"type": "function"
				}
			],
			"devdoc": {
				"kind": "dev",
				"methods": {},
				"version": 1
			},
			"evm": {
				"assembly": "    /* \"contracts/LibDemo.sol\":79:710  contract LibDemo {... */\n  mstore(0x40, 0x80)\n  callvalue\n  dup1\n  iszero\n  tag_1\n  jumpi\n  0x00\n  dup1\n  revert\ntag_1:\n  pop\n  dataSize(sub_0)\n  dup1\n  dataOffset(sub_0)\n  0x00\n  codecopy\n  0x00\n  return\nstop\n\nsub_0: assembly {\n        /* \"contracts/LibDemo.sol\":79:710  contract LibDemo {... */\n      mstore(0x40, 0x80)\n      callvalue\n      dup1\n      iszero\n      tag_1\n      jumpi\n      0x00\n      dup1\n      revert\n    tag_1:\n      pop\n      jumpi(tag_2, lt(calldatasize, 0x04))\n      shr(0xe0, calldataload(0x00))\n      dup1\n      0x7fbf8287\n      eq\n      tag_3\n      jumpi\n      dup1\n      0xbbd95c32\n      eq\n      tag_4\n      jumpi\n    tag_2:\n      0x00\n      dup1\n      revert\n        /* \"contracts/LibDemo.sol\":163:587  function runnerStr(... */\n    tag_3:\n      tag_5\n      0x04\n      dup1\n      calldatasize\n      sub\n      dup2\n      add\n      swap1\n      tag_6\n      swap2\n      swap1\n      tag_7\n      jump\t// in\n    tag_6:\n      tag_8\n      jump\t// in\n    tag_5:\n      mload(0x40)\n      tag_9\n      swap2\n      swap1\n      tag_10\n      jump\t// in\n    tag_9:\n      mload(0x40)\n      dup1\n      swap2\n      sub\n      swap1\n      return\n        /* \"contracts/LibDemo.sol\":593:708  function inArray(uint[] memory array, uint el) public pure returns (bool) {... */\n    tag_4:\n      tag_11\n      0x04\n      dup1\n      calldatasize\n      sub\n      dup2\n      add\n      swap1\n      tag_12\n      swap2\n      swap1\n      tag_13\n      jump\t// in\n    tag_12:\n      tag_14\n      jump\t// in\n    tag_11:\n      mload(0x40)\n      tag_15\n      swap2\n      swap1\n      tag_10\n      jump\t// in\n    tag_15:\n      mload(0x40)\n      dup1\n      swap2\n      sub\n      swap1\n      return\n        /* \"contracts/LibDemo.sol\":163:587  function runnerStr(... */\n    tag_8:\n        /* \"contracts/LibDemo.sol\":265:269  bool */\n      0x00\n        /* \"contracts/LibDemo.sol\":435:441  StrExt */\n      linkerSymbol(\"4f16e78cabc57cc7ec85a3b60b3e9e6cb40f7831ef49cb0be44c78cd862e1b0e\")\n        /* \"contracts/LibDemo.sol\":435:444  StrExt.eq */\n      0x21a49642\n        /* \"contracts/LibDemo.sol\":445:449  str1 */\n      dup5\n        /* \"contracts/LibDemo.sol\":451:455  str2 */\n      dup5\n        /* \"contracts/LibDemo.sol\":435:456  StrExt.eq(str1, str2) */\n      mload(0x40)\n      dup4\n      0xffffffff\n      and\n      0xe0\n      shl\n      dup2\n      mstore\n      0x04\n      add\n      tag_17\n      swap3\n      swap2\n      swap1\n      tag_18\n      jump\t// in\n    tag_17:\n      0x20\n      mload(0x40)\n      dup1\n      dup4\n      sub\n      dup2\n      dup7\n      gas\n      delegatecall\n      iszero\n      dup1\n      iszero\n      tag_20\n      jumpi\n      returndatasize\n      0x00\n      dup1\n      returndatacopy\n      revert(0x00, returndatasize)\n    tag_20:\n      pop\n      pop\n      pop\n      pop\n      mload(0x40)\n      returndatasize\n      not(0x1f)\n      0x1f\n      dup3\n      add\n      and\n      dup3\n      add\n      dup1\n      0x40\n      mstore\n      pop\n      dup2\n      add\n      swap1\n      tag_21\n      swap2\n      swap1\n      tag_22\n      jump\t// in\n    tag_21:\n        /* \"contracts/LibDemo.sol\":428:456  return StrExt.eq(str1, str2) */\n      swap1\n      pop\n        /* \"contracts/LibDemo.sol\":163:587  function runnerStr(... */\n      swap3\n      swap2\n      pop\n      pop\n      jump\t// out\n        /* \"contracts/LibDemo.sol\":593:708  function inArray(uint[] memory array, uint el) public pure returns (bool) {... */\n    tag_14:\n        /* \"contracts/LibDemo.sol\":661:665  bool */\n      0x00\n        /* \"contracts/LibDemo.sol\":684:689  array */\n      dup3\n        /* \"contracts/LibDemo.sol\":684:697  array.inArray */\n      linkerSymbol(\"b934df9e982d2a982ff0aef6f375a5866f905ba00a7ec0a48712cdc88d5a33a8\")\n      0xbbd95c32\n      swap1\n      swap2\n        /* \"contracts/LibDemo.sol\":698:700  el */\n      dup5\n        /* \"contracts/LibDemo.sol\":684:701  array.inArray(el) */\n      mload(0x40)\n      dup4\n      0xffffffff\n      and\n      0xe0\n      shl\n      dup2\n      mstore\n      0x04\n      add\n      tag_24\n      swap3\n      swap2\n      swap1\n      tag_25\n      jump\t// in\n    tag_24:\n      0x20\n      mload(0x40)\n      dup1\n      dup4\n      sub\n      dup2\n      dup7\n      gas\n      delegatecall\n      iszero\n      dup1\n      iszero\n      tag_27\n      jumpi\n      returndatasize\n      0x00\n      dup1\n      returndatacopy\n      revert(0x00, returndatasize)\n    tag_27:\n      pop\n      pop\n      pop\n      pop\n      mload(0x40)\n      returndatasize\n      not(0x1f)\n      0x1f\n      dup3\n      add\n      and\n      dup3\n      add\n      dup1\n      0x40\n      mstore\n      pop\n      dup2\n      add\n      swap1\n      tag_28\n      swap2\n      swap1\n      tag_22\n      jump\t// in\n    tag_28:\n        /* \"contracts/LibDemo.sol\":677:701  return array.inArray(el) */\n      swap1\n      pop\n        /* \"contracts/LibDemo.sol\":593:708  function inArray(uint[] memory array, uint el) public pure returns (bool) {... */\n      swap3\n      swap2\n      pop\n      pop\n      jump\t// out\n        /* \"#utility.yul\":7:82   */\n    tag_29:\n        /* \"#utility.yul\":40:46   */\n      0x00\n        /* \"#utility.yul\":73:75   */\n      0x40\n        /* \"#utility.yul\":67:76   */\n      mload\n        /* \"#utility.yul\":57:76   */\n      swap1\n      pop\n        /* \"#utility.yul\":7:82   */\n      swap1\n      jump\t// out\n        /* \"#utility.yul\":88:205   */\n    tag_30:\n        /* \"#utility.yul\":197:198   */\n      0x00\n        /* \"#utility.yul\":194:195   */\n      dup1\n        /* \"#utility.yul\":187:199   */\n      revert\n        /* \"#utility.yul\":211:328   */\n    tag_31:\n        /* \"#utility.yul\":320:321   */\n      0x00\n        /* \"#utility.yul\":317:318   */\n      dup1\n        /* \"#utility.yul\":310:322   */\n      revert\n        /* \"#utility.yul\":334:451   */\n    tag_32:\n        /* \"#utility.yul\":443:444   */\n      0x00\n        /* \"#utility.yul\":440:441   */\n      dup1\n        /* \"#utility.yul\":433:445   */\n      revert\n        /* \"#utility.yul\":457:574   */\n    tag_33:\n        /* \"#utility.yul\":566:567   */\n      0x00\n        /* \"#utility.yul\":563:564   */\n      dup1\n        /* \"#utility.yul\":556:568   */\n      revert\n        /* \"#utility.yul\":580:682   */\n    tag_34:\n        /* \"#utility.yul\":621:627   */\n      0x00\n        /* \"#utility.yul\":672:674   */\n      0x1f\n        /* \"#utility.yul\":668:675   */\n      not\n        /* \"#utility.yul\":663:665   */\n      0x1f\n        /* \"#utility.yul\":656:661   */\n      dup4\n        /* \"#utility.yul\":652:666   */\n      add\n        /* \"#utility.yul\":648:676   */\n      and\n        /* \"#utility.yul\":638:676   */\n      swap1\n      pop\n        /* \"#utility.yul\":580:682   */\n      swap2\n      swap1\n      pop\n      jump\t// out\n        /* \"#utility.yul\":688:868   */\n    tag_35:\n        /* \"#utility.yul\":736:813   */\n      0x4e487b7100000000000000000000000000000000000000000000000000000000\n        /* \"#utility.yul\":733:734   */\n      0x00\n        /* \"#utility.yul\":726:814   */\n      mstore\n        /* \"#utility.yul\":833:837   */\n      0x41\n        /* \"#utility.yul\":830:831   */\n      0x04\n        /* \"#utility.yul\":823:838   */\n      mstore\n        /* \"#utility.yul\":857:861   */\n      0x24\n        /* \"#utility.yul\":854:855   */\n      0x00\n        /* \"#utility.yul\":847:862   */\n      revert\n        /* \"#utility.yul\":874:1155   */\n    tag_36:\n        /* \"#utility.yul\":957:984   */\n      tag_74\n        /* \"#utility.yul\":979:983   */\n      dup3\n        /* \"#utility.yul\":957:984   */\n      tag_34\n      jump\t// in\n    tag_74:\n        /* \"#utility.yul\":949:955   */\n      dup2\n        /* \"#utility.yul\":945:985   */\n      add\n        /* \"#utility.yul\":1087:1093   */\n      dup2\n        /* \"#utility.yul\":1075:1085   */\n      dup2\n        /* \"#utility.yul\":1072:1094   */\n      lt\n        /* \"#utility.yul\":1051:1069   */\n      0xffffffffffffffff\n        /* \"#utility.yul\":1039:1049   */\n      dup3\n        /* \"#utility.yul\":1036:1070   */\n      gt\n        /* \"#utility.yul\":1033:1095   */\n      or\n        /* \"#utility.yul\":1030:1118   */\n      iszero\n      tag_75\n      jumpi\n        /* \"#utility.yul\":1098:1116   */\n      tag_76\n      tag_35\n      jump\t// in\n    tag_76:\n        /* \"#utility.yul\":1030:1118   */\n    tag_75:\n        /* \"#utility.yul\":1138:1148   */\n      dup1\n        /* \"#utility.yul\":1134:1136   */\n      0x40\n        /* \"#utility.yul\":1127:1149   */\n      mstore\n        /* \"#utility.yul\":917:1155   */\n      pop\n        /* \"#utility.yul\":874:1155   */\n      pop\n      pop\n      jump\t// out\n        /* \"#utility.yul\":1161:1290   */\n    tag_37:\n        /* \"#utility.yul\":1195:1201   */\n      0x00\n        /* \"#utility.yul\":1222:1242   */\n      tag_78\n      tag_29\n      jump\t// in\n    tag_78:\n        /* \"#utility.yul\":1212:1242   */\n      swap1\n      pop\n        /* \"#utility.yul\":1251:1284   */\n      tag_79\n        /* \"#utility.yul\":1279:1283   */\n      dup3\n        /* \"#utility.yul\":1271:1277   */\n      dup3\n        /* \"#utility.yul\":1251:1284   */\n      tag_36\n      jump\t// in\n    tag_79:\n        /* \"#utility.yul\":1161:1290   */\n      swap2\n      swap1\n      pop\n      jump\t// out\n        /* \"#utility.yul\":1296:1604   */\n    tag_38:\n        /* \"#utility.yul\":1358:1362   */\n      0x00\n        /* \"#utility.yul\":1448:1466   */\n      0xffffffffffffffff\n        /* \"#utility.yul\":1440:1446   */\n      dup3\n        /* \"#utility.yul\":1437:1467   */\n      gt\n        /* \"#utility.yul\":1434:1490   */\n      iszero\n      tag_81\n      jumpi\n        /* \"#utility.yul\":1470:1488   */\n      tag_82\n      tag_35\n      jump\t// in\n    tag_82:\n        /* \"#utility.yul\":1434:1490   */\n    tag_81:\n        /* \"#utility.yul\":1508:1537   */\n      tag_83\n        /* \"#utility.yul\":1530:1536   */\n      dup3\n        /* \"#utility.yul\":1508:1537   */\n      tag_34\n      jump\t// in\n    tag_83:\n        /* \"#utility.yul\":1500:1537   */\n      swap1\n      pop\n        /* \"#utility.yul\":1592:1596   */\n      0x20\n        /* \"#utility.yul\":1586:1590   */\n      dup2\n        /* \"#utility.yul\":1582:1597   */\n      add\n        /* \"#utility.yul\":1574:1597   */\n      swap1\n      pop\n        /* \"#utility.yul\":1296:1604   */\n      swap2\n      swap1\n      pop\n      jump\t// out\n        /* \"#utility.yul\":1610:1756   */\n    tag_39:\n        /* \"#utility.yul\":1707:1713   */\n      dup3\n        /* \"#utility.yul\":1702:1705   */\n      dup2\n        /* \"#utility.yul\":1697:1700   */\n      dup4\n        /* \"#utility.yul\":1684:1714   */\n      calldatacopy\n        /* \"#utility.yul\":1748:1749   */\n      0x00\n        /* \"#utility.yul\":1739:1745   */\n      dup4\n        /* \"#utility.yul\":1734:1737   */\n      dup4\n        /* \"#utility.yul\":1730:1746   */\n      add\n        /* \"#utility.yul\":1723:1750   */\n      mstore\n        /* \"#utility.yul\":1610:1756   */\n      pop\n      pop\n      pop\n      jump\t// out\n        /* \"#utility.yul\":1762:2187   */\n    tag_40:\n        /* \"#utility.yul\":1840:1845   */\n      0x00\n        /* \"#utility.yul\":1865:1931   */\n      tag_86\n        /* \"#utility.yul\":1881:1930   */\n      tag_87\n        /* \"#utility.yul\":1923:1929   */\n      dup5\n        /* \"#utility.yul\":1881:1930   */\n      tag_38\n      jump\t// in\n    tag_87:\n        /* \"#utility.yul\":1865:1931   */\n      tag_37\n      jump\t// in\n    tag_86:\n        /* \"#utility.yul\":1856:1931   */\n      swap1\n      pop\n        /* \"#utility.yul\":1954:1960   */\n      dup3\n        /* \"#utility.yul\":1947:1952   */\n      dup2\n        /* \"#utility.yul\":1940:1961   */\n      mstore\n        /* \"#utility.yul\":1992:1996   */\n      0x20\n        /* \"#utility.yul\":1985:1990   */\n      dup2\n        /* \"#utility.yul\":1981:1997   */\n      add\n        /* \"#utility.yul\":2030:2033   */\n      dup5\n        /* \"#utility.yul\":2021:2027   */\n      dup5\n        /* \"#utility.yul\":2016:2019   */\n      dup5\n        /* \"#utility.yul\":2012:2028   */\n      add\n        /* \"#utility.yul\":2009:2034   */\n      gt\n        /* \"#utility.yul\":2006:2118   */\n      iszero\n      tag_88\n      jumpi\n        /* \"#utility.yul\":2037:2116   */\n      tag_89\n      tag_33\n      jump\t// in\n    tag_89:\n        /* \"#utility.yul\":2006:2118   */\n    tag_88:\n        /* \"#utility.yul\":2127:2181   */\n      tag_90\n        /* \"#utility.yul\":2174:2180   */\n      dup5\n        /* \"#utility.yul\":2169:2172   */\n      dup3\n        /* \"#utility.yul\":2164:2167   */\n      dup6\n        /* \"#utility.yul\":2127:2181   */\n      tag_39\n      jump\t// in\n    tag_90:\n        /* \"#utility.yul\":1846:2187   */\n      pop\n        /* \"#utility.yul\":1762:2187   */\n      swap4\n      swap3\n      pop\n      pop\n      pop\n      jump\t// out\n        /* \"#utility.yul\":2207:2547   */\n    tag_41:\n        /* \"#utility.yul\":2263:2268   */\n      0x00\n        /* \"#utility.yul\":2312:2315   */\n      dup3\n        /* \"#utility.yul\":2305:2309   */\n      0x1f\n        /* \"#utility.yul\":2297:2303   */\n      dup4\n        /* \"#utility.yul\":2293:2310   */\n      add\n        /* \"#utility.yul\":2289:2316   */\n      slt\n        /* \"#utility.yul\":2279:2401   */\n      tag_92\n      jumpi\n        /* \"#utility.yul\":2320:2399   */\n      tag_93\n      tag_32\n      jump\t// in\n    tag_93:\n        /* \"#utility.yul\":2279:2401   */\n    tag_92:\n        /* \"#utility.yul\":2437:2443   */\n      dup2\n        /* \"#utility.yul\":2424:2444   */\n      calldataload\n        /* \"#utility.yul\":2462:2541   */\n      tag_94\n        /* \"#utility.yul\":2537:2540   */\n      dup5\n        /* \"#utility.yul\":2529:2535   */\n      dup3\n        /* \"#utility.yul\":2522:2526   */\n      0x20\n        /* \"#utility.yul\":2514:2520   */\n      dup7\n        /* \"#utility.yul\":2510:2527   */\n      add\n        /* \"#utility.yul\":2462:2541   */\n      tag_40\n      jump\t// in\n    tag_94:\n        /* \"#utility.yul\":2453:2541   */\n      swap2\n      pop\n        /* \"#utility.yul\":2269:2547   */\n      pop\n        /* \"#utility.yul\":2207:2547   */\n      swap3\n      swap2\n      pop\n      pop\n      jump\t// out\n        /* \"#utility.yul\":2553:3387   */\n    tag_7:\n        /* \"#utility.yul\":2641:2647   */\n      0x00\n        /* \"#utility.yul\":2649:2655   */\n      dup1\n        /* \"#utility.yul\":2698:2700   */\n      0x40\n        /* \"#utility.yul\":2686:2695   */\n      dup4\n        /* \"#utility.yul\":2677:2684   */\n      dup6\n        /* \"#utility.yul\":2673:2696   */\n      sub\n        /* \"#utility.yul\":2669:2701   */\n      slt\n        /* \"#utility.yul\":2666:2785   */\n      iszero\n      tag_96\n      jumpi\n        /* \"#utility.yul\":2704:2783   */\n      tag_97\n      tag_30\n      jump\t// in\n    tag_97:\n        /* \"#utility.yul\":2666:2785   */\n    tag_96:\n        /* \"#utility.yul\":2852:2853   */\n      0x00\n        /* \"#utility.yul\":2841:2850   */\n      dup4\n        /* \"#utility.yul\":2837:2854   */\n      add\n        /* \"#utility.yul\":2824:2855   */\n      calldataload\n        /* \"#utility.yul\":2882:2900   */\n      0xffffffffffffffff\n        /* \"#utility.yul\":2874:2880   */\n      dup2\n        /* \"#utility.yul\":2871:2901   */\n      gt\n        /* \"#utility.yul\":2868:2985   */\n      iszero\n      tag_98\n      jumpi\n        /* \"#utility.yul\":2904:2983   */\n      tag_99\n      tag_31\n      jump\t// in\n    tag_99:\n        /* \"#utility.yul\":2868:2985   */\n    tag_98:\n        /* \"#utility.yul\":3009:3072   */\n      tag_100\n        /* \"#utility.yul\":3064:3071   */\n      dup6\n        /* \"#utility.yul\":3055:3061   */\n      dup3\n        /* \"#utility.yul\":3044:3053   */\n      dup7\n        /* \"#utility.yul\":3040:3062   */\n      add\n        /* \"#utility.yul\":3009:3072   */\n      tag_41\n      jump\t// in\n    tag_100:\n        /* \"#utility.yul\":2999:3072   */\n      swap3\n      pop\n        /* \"#utility.yul\":2795:3082   */\n      pop\n        /* \"#utility.yul\":3149:3151   */\n      0x20\n        /* \"#utility.yul\":3138:3147   */\n      dup4\n        /* \"#utility.yul\":3134:3152   */\n      add\n        /* \"#utility.yul\":3121:3153   */\n      calldataload\n        /* \"#utility.yul\":3180:3198   */\n      0xffffffffffffffff\n        /* \"#utility.yul\":3172:3178   */\n      dup2\n        /* \"#utility.yul\":3169:3199   */\n      gt\n        /* \"#utility.yul\":3166:3283   */\n      iszero\n      tag_101\n      jumpi\n        /* \"#utility.yul\":3202:3281   */\n      tag_102\n      tag_31\n      jump\t// in\n    tag_102:\n        /* \"#utility.yul\":3166:3283   */\n    tag_101:\n        /* \"#utility.yul\":3307:3370   */\n      tag_103\n        /* \"#utility.yul\":3362:3369   */\n      dup6\n        /* \"#utility.yul\":3353:3359   */\n      dup3\n        /* \"#utility.yul\":3342:3351   */\n      dup7\n        /* \"#utility.yul\":3338:3360   */\n      add\n        /* \"#utility.yul\":3307:3370   */\n      tag_41\n      jump\t// in\n    tag_103:\n        /* \"#utility.yul\":3297:3370   */\n      swap2\n      pop\n        /* \"#utility.yul\":3092:3380   */\n      pop\n        /* \"#utility.yul\":2553:3387   */\n      swap3\n      pop\n      swap3\n      swap1\n      pop\n      jump\t// out\n        /* \"#utility.yul\":3393:3483   */\n    tag_42:\n        /* \"#utility.yul\":3427:3434   */\n      0x00\n        /* \"#utility.yul\":3470:3475   */\n      dup2\n        /* \"#utility.yul\":3463:3476   */\n      iszero\n        /* \"#utility.yul\":3456:3477   */\n      iszero\n        /* \"#utility.yul\":3445:3477   */\n      swap1\n      pop\n        /* \"#utility.yul\":3393:3483   */\n      swap2\n      swap1\n      pop\n      jump\t// out\n        /* \"#utility.yul\":3489:3598   */\n    tag_43:\n        /* \"#utility.yul\":3570:3591   */\n      tag_106\n        /* \"#utility.yul\":3585:3590   */\n      dup2\n        /* \"#utility.yul\":3570:3591   */\n      tag_42\n      jump\t// in\n    tag_106:\n        /* \"#utility.yul\":3565:3568   */\n      dup3\n        /* \"#utility.yul\":3558:3592   */\n      mstore\n        /* \"#utility.yul\":3489:3598   */\n      pop\n      pop\n      jump\t// out\n        /* \"#utility.yul\":3604:3814   */\n    tag_10:\n        /* \"#utility.yul\":3691:3695   */\n      0x00\n        /* \"#utility.yul\":3729:3731   */\n      0x20\n        /* \"#utility.yul\":3718:3727   */\n      dup3\n        /* \"#utility.yul\":3714:3732   */\n      add\n        /* \"#utility.yul\":3706:3732   */\n      swap1\n      pop\n        /* \"#utility.yul\":3742:3807   */\n      tag_108\n        /* \"#utility.yul\":3804:3805   */\n      0x00\n        /* \"#utility.yul\":3793:3802   */\n      dup4\n        /* \"#utility.yul\":3789:3806   */\n      add\n        /* \"#utility.yul\":3780:3786   */\n      dup5\n        /* \"#utility.yul\":3742:3807   */\n      tag_43\n      jump\t// in\n    tag_108:\n        /* \"#utility.yul\":3604:3814   */\n      swap3\n      swap2\n      pop\n      pop\n      jump\t// out\n        /* \"#utility.yul\":3820:4131   */\n    tag_44:\n        /* \"#utility.yul\":3897:3901   */\n      0x00\n        /* \"#utility.yul\":3987:4005   */\n      0xffffffffffffffff\n        /* \"#utility.yul\":3979:3985   */\n      dup3\n        /* \"#utility.yul\":3976:4006   */\n      gt\n        /* \"#utility.yul\":3973:4029   */\n      iszero\n      tag_110\n      jumpi\n        /* \"#utility.yul\":4009:4027   */\n      tag_111\n      tag_35\n      jump\t// in\n    tag_111:\n        /* \"#utility.yul\":3973:4029   */\n    tag_110:\n        /* \"#utility.yul\":4059:4063   */\n      0x20\n        /* \"#utility.yul\":4051:4057   */\n      dup3\n        /* \"#utility.yul\":4047:4064   */\n      mul\n        /* \"#utility.yul\":4039:4064   */\n      swap1\n      pop\n        /* \"#utility.yul\":4119:4123   */\n      0x20\n        /* \"#utility.yul\":4113:4117   */\n      dup2\n        /* \"#utility.yul\":4109:4124   */\n      add\n        /* \"#utility.yul\":4101:4124   */\n      swap1\n      pop\n        /* \"#utility.yul\":3820:4131   */\n      swap2\n      swap1\n      pop\n      jump\t// out\n        /* \"#utility.yul\":4137:4254   */\n    tag_45:\n        /* \"#utility.yul\":4246:4247   */\n      0x00\n        /* \"#utility.yul\":4243:4244   */\n      dup1\n        /* \"#utility.yul\":4236:4248   */\n      revert\n        /* \"#utility.yul\":4260:4337   */\n    tag_46:\n        /* \"#utility.yul\":4297:4304   */\n      0x00\n        /* \"#utility.yul\":4326:4331   */\n      dup2\n        /* \"#utility.yul\":4315:4331   */\n      swap1\n      pop\n        /* \"#utility.yul\":4260:4337   */\n      swap2\n      swap1\n      pop\n      jump\t// out\n        /* \"#utility.yul\":4343:4465   */\n    tag_47:\n        /* \"#utility.yul\":4416:4440   */\n      tag_115\n        /* \"#utility.yul\":4434:4439   */\n      dup2\n        /* \"#utility.yul\":4416:4440   */\n      tag_46\n      jump\t// in\n    tag_115:\n        /* \"#utility.yul\":4409:4414   */\n      dup2\n        /* \"#utility.yul\":4406:4441   */\n      eq\n        /* \"#utility.yul\":4396:4459   */\n      tag_116\n      jumpi\n        /* \"#utility.yul\":4455:4456   */\n      0x00\n        /* \"#utility.yul\":4452:4453   */\n      dup1\n        /* \"#utility.yul\":4445:4457   */\n      revert\n        /* \"#utility.yul\":4396:4459   */\n    tag_116:\n        /* \"#utility.yul\":4343:4465   */\n      pop\n      jump\t// out\n        /* \"#utility.yul\":4471:4610   */\n    tag_48:\n        /* \"#utility.yul\":4517:4522   */\n      0x00\n        /* \"#utility.yul\":4555:4561   */\n      dup2\n        /* \"#utility.yul\":4542:4562   */\n      calldataload\n        /* \"#utility.yul\":4533:4562   */\n      swap1\n      pop\n        /* \"#utility.yul\":4571:4604   */\n      tag_118\n        /* \"#utility.yul\":4598:4603   */\n      dup2\n        /* \"#utility.yul\":4571:4604   */\n      tag_47\n      jump\t// in\n    tag_118:\n        /* \"#utility.yul\":4471:4610   */\n      swap3\n      swap2\n      pop\n      pop\n      jump\t// out\n        /* \"#utility.yul\":4633:5343   */\n    tag_49:\n        /* \"#utility.yul\":4729:4734   */\n      0x00\n        /* \"#utility.yul\":4754:4835   */\n      tag_120\n        /* \"#utility.yul\":4770:4834   */\n      tag_121\n        /* \"#utility.yul\":4827:4833   */\n      dup5\n        /* \"#utility.yul\":4770:4834   */\n      tag_44\n      jump\t// in\n    tag_121:\n        /* \"#utility.yul\":4754:4835   */\n      tag_37\n      jump\t// in\n    tag_120:\n        /* \"#utility.yul\":4745:4835   */\n      swap1\n      pop\n        /* \"#utility.yul\":4855:4860   */\n      dup1\n        /* \"#utility.yul\":4884:4890   */\n      dup4\n        /* \"#utility.yul\":4877:4882   */\n      dup3\n        /* \"#utility.yul\":4870:4891   */\n      mstore\n        /* \"#utility.yul\":4918:4922   */\n      0x20\n        /* \"#utility.yul\":4911:4916   */\n      dup3\n        /* \"#utility.yul\":4907:4923   */\n      add\n        /* \"#utility.yul\":4900:4923   */\n      swap1\n      pop\n        /* \"#utility.yul\":4971:4975   */\n      0x20\n        /* \"#utility.yul\":4963:4969   */\n      dup5\n        /* \"#utility.yul\":4959:4976   */\n      mul\n        /* \"#utility.yul\":4951:4957   */\n      dup4\n        /* \"#utility.yul\":4947:4977   */\n      add\n        /* \"#utility.yul\":5000:5003   */\n      dup6\n        /* \"#utility.yul\":4992:4998   */\n      dup2\n        /* \"#utility.yul\":4989:5004   */\n      gt\n        /* \"#utility.yul\":4986:5108   */\n      iszero\n      tag_122\n      jumpi\n        /* \"#utility.yul\":5019:5098   */\n      tag_123\n      tag_45\n      jump\t// in\n    tag_123:\n        /* \"#utility.yul\":4986:5108   */\n    tag_122:\n        /* \"#utility.yul\":5134:5140   */\n      dup4\n        /* \"#utility.yul\":5117:5337   */\n    tag_124:\n        /* \"#utility.yul\":5151:5157   */\n      dup2\n        /* \"#utility.yul\":5146:5149   */\n      dup2\n        /* \"#utility.yul\":5143:5158   */\n      lt\n        /* \"#utility.yul\":5117:5337   */\n      iszero\n      tag_126\n      jumpi\n        /* \"#utility.yul\":5226:5229   */\n      dup1\n        /* \"#utility.yul\":5255:5292   */\n      tag_127\n        /* \"#utility.yul\":5288:5291   */\n      dup9\n        /* \"#utility.yul\":5276:5286   */\n      dup3\n        /* \"#utility.yul\":5255:5292   */\n      tag_48\n      jump\t// in\n    tag_127:\n        /* \"#utility.yul\":5250:5253   */\n      dup5\n        /* \"#utility.yul\":5243:5293   */\n      mstore\n        /* \"#utility.yul\":5322:5326   */\n      0x20\n        /* \"#utility.yul\":5317:5320   */\n      dup5\n        /* \"#utility.yul\":5313:5327   */\n      add\n        /* \"#utility.yul\":5306:5327   */\n      swap4\n      pop\n        /* \"#utility.yul\":5193:5337   */\n      pop\n        /* \"#utility.yul\":5177:5181   */\n      0x20\n        /* \"#utility.yul\":5172:5175   */\n      dup2\n        /* \"#utility.yul\":5168:5182   */\n      add\n        /* \"#utility.yul\":5161:5182   */\n      swap1\n      pop\n        /* \"#utility.yul\":5117:5337   */\n      jump(tag_124)\n    tag_126:\n        /* \"#utility.yul\":5121:5142   */\n      pop\n        /* \"#utility.yul\":4735:5343   */\n      pop\n      pop\n        /* \"#utility.yul\":4633:5343   */\n      swap4\n      swap3\n      pop\n      pop\n      pop\n      jump\t// out\n        /* \"#utility.yul\":5366:5736   */\n    tag_50:\n        /* \"#utility.yul\":5437:5442   */\n      0x00\n        /* \"#utility.yul\":5486:5489   */\n      dup3\n        /* \"#utility.yul\":5479:5483   */\n      0x1f\n        /* \"#utility.yul\":5471:5477   */\n      dup4\n        /* \"#utility.yul\":5467:5484   */\n      add\n        /* \"#utility.yul\":5463:5490   */\n      slt\n        /* \"#utility.yul\":5453:5575   */\n      tag_129\n      jumpi\n        /* \"#utility.yul\":5494:5573   */\n      tag_130\n      tag_32\n      jump\t// in\n    tag_130:\n        /* \"#utility.yul\":5453:5575   */\n    tag_129:\n        /* \"#utility.yul\":5611:5617   */\n      dup2\n        /* \"#utility.yul\":5598:5618   */\n      calldataload\n        /* \"#utility.yul\":5636:5730   */\n      tag_131\n        /* \"#utility.yul\":5726:5729   */\n      dup5\n        /* \"#utility.yul\":5718:5724   */\n      dup3\n        /* \"#utility.yul\":5711:5715   */\n      0x20\n        /* \"#utility.yul\":5703:5709   */\n      dup7\n        /* \"#utility.yul\":5699:5716   */\n      add\n        /* \"#utility.yul\":5636:5730   */\n      tag_49\n      jump\t// in\n    tag_131:\n        /* \"#utility.yul\":5627:5730   */\n      swap2\n      pop\n        /* \"#utility.yul\":5443:5736   */\n      pop\n        /* \"#utility.yul\":5366:5736   */\n      swap3\n      swap2\n      pop\n      pop\n      jump\t// out\n        /* \"#utility.yul\":5742:6426   */\n    tag_13:\n        /* \"#utility.yul\":5835:5841   */\n      0x00\n        /* \"#utility.yul\":5843:5849   */\n      dup1\n        /* \"#utility.yul\":5892:5894   */\n      0x40\n        /* \"#utility.yul\":5880:5889   */\n      dup4\n        /* \"#utility.yul\":5871:5878   */\n      dup6\n        /* \"#utility.yul\":5867:5890   */\n      sub\n        /* \"#utility.yul\":5863:5895   */\n      slt\n        /* \"#utility.yul\":5860:5979   */\n      iszero\n      tag_133\n      jumpi\n        /* \"#utility.yul\":5898:5977   */\n      tag_134\n      tag_30\n      jump\t// in\n    tag_134:\n        /* \"#utility.yul\":5860:5979   */\n    tag_133:\n        /* \"#utility.yul\":6046:6047   */\n      0x00\n        /* \"#utility.yul\":6035:6044   */\n      dup4\n        /* \"#utility.yul\":6031:6048   */\n      add\n        /* \"#utility.yul\":6018:6049   */\n      calldataload\n        /* \"#utility.yul\":6076:6094   */\n      0xffffffffffffffff\n        /* \"#utility.yul\":6068:6074   */\n      dup2\n        /* \"#utility.yul\":6065:6095   */\n      gt\n        /* \"#utility.yul\":6062:6179   */\n      iszero\n      tag_135\n      jumpi\n        /* \"#utility.yul\":6098:6177   */\n      tag_136\n      tag_31\n      jump\t// in\n    tag_136:\n        /* \"#utility.yul\":6062:6179   */\n    tag_135:\n        /* \"#utility.yul\":6203:6281   */\n      tag_137\n        /* \"#utility.yul\":6273:6280   */\n      dup6\n        /* \"#utility.yul\":6264:6270   */\n      dup3\n        /* \"#utility.yul\":6253:6262   */\n      dup7\n        /* \"#utility.yul\":6249:6271   */\n      add\n        /* \"#utility.yul\":6203:6281   */\n      tag_50\n      jump\t// in\n    tag_137:\n        /* \"#utility.yul\":6193:6281   */\n      swap3\n      pop\n        /* \"#utility.yul\":5989:6291   */\n      pop\n        /* \"#utility.yul\":6330:6332   */\n      0x20\n        /* \"#utility.yul\":6356:6409   */\n      tag_138\n        /* \"#utility.yul\":6401:6408   */\n      dup6\n        /* \"#utility.yul\":6392:6398   */\n      dup3\n        /* \"#utility.yul\":6381:6390   */\n      dup7\n        /* \"#utility.yul\":6377:6399   */\n      add\n        /* \"#utility.yul\":6356:6409   */\n      tag_48\n      jump\t// in\n    tag_138:\n        /* \"#utility.yul\":6346:6409   */\n      swap2\n      pop\n        /* \"#utility.yul\":6301:6419   */\n      pop\n        /* \"#utility.yul\":5742:6426   */\n      swap3\n      pop\n      swap3\n      swap1\n      pop\n      jump\t// out\n        /* \"#utility.yul\":6432:6531   */\n    tag_51:\n        /* \"#utility.yul\":6484:6490   */\n      0x00\n        /* \"#utility.yul\":6518:6523   */\n      dup2\n        /* \"#utility.yul\":6512:6524   */\n      mload\n        /* \"#utility.yul\":6502:6524   */\n      swap1\n      pop\n        /* \"#utility.yul\":6432:6531   */\n      swap2\n      swap1\n      pop\n      jump\t// out\n        /* \"#utility.yul\":6537:6714   */\n    tag_52:\n        /* \"#utility.yul\":6629:6640   */\n      0x00\n        /* \"#utility.yul\":6663:6669   */\n      dup3\n        /* \"#utility.yul\":6658:6661   */\n      dup3\n        /* \"#utility.yul\":6651:6670   */\n      mstore\n        /* \"#utility.yul\":6703:6707   */\n      0x20\n        /* \"#utility.yul\":6698:6701   */\n      dup3\n        /* \"#utility.yul\":6694:6708   */\n      add\n        /* \"#utility.yul\":6679:6708   */\n      swap1\n      pop\n        /* \"#utility.yul\":6537:6714   */\n      swap3\n      swap2\n      pop\n      pop\n      jump\t// out\n        /* \"#utility.yul\":6720:6966   */\n    tag_53:\n        /* \"#utility.yul\":6801:6802   */\n      0x00\n        /* \"#utility.yul\":6811:6924   */\n    tag_142:\n        /* \"#utility.yul\":6825:6831   */\n      dup4\n        /* \"#utility.yul\":6822:6823   */\n      dup2\n        /* \"#utility.yul\":6819:6832   */\n      lt\n        /* \"#utility.yul\":6811:6924   */\n      iszero\n      tag_144\n      jumpi\n        /* \"#utility.yul\":6910:6911   */\n      dup1\n        /* \"#utility.yul\":6905:6908   */\n      dup3\n        /* \"#utility.yul\":6901:6912   */\n      add\n        /* \"#utility.yul\":6895:6913   */\n      mload\n        /* \"#utility.yul\":6891:6892   */\n      dup2\n        /* \"#utility.yul\":6886:6889   */\n      dup5\n        /* \"#utility.yul\":6882:6893   */\n      add\n        /* \"#utility.yul\":6875:6914   */\n      mstore\n        /* \"#utility.yul\":6847:6849   */\n      0x20\n        /* \"#utility.yul\":6844:6845   */\n      dup2\n        /* \"#utility.yul\":6840:6850   */\n      add\n        /* \"#utility.yul\":6835:6850   */\n      swap1\n      pop\n        /* \"#utility.yul\":6811:6924   */\n      jump(tag_142)\n    tag_144:\n        /* \"#utility.yul\":6958:6959   */\n      0x00\n        /* \"#utility.yul\":6949:6955   */\n      dup5\n        /* \"#utility.yul\":6944:6947   */\n      dup5\n        /* \"#utility.yul\":6940:6956   */\n      add\n        /* \"#utility.yul\":6933:6960   */\n      mstore\n        /* \"#utility.yul\":6782:6966   */\n      pop\n        /* \"#utility.yul\":6720:6966   */\n      pop\n      pop\n      pop\n      jump\t// out\n        /* \"#utility.yul\":6972:7365   */\n    tag_54:\n        /* \"#utility.yul\":7068:7071   */\n      0x00\n        /* \"#utility.yul\":7096:7135   */\n      tag_146\n        /* \"#utility.yul\":7129:7134   */\n      dup3\n        /* \"#utility.yul\":7096:7135   */\n      tag_51\n      jump\t// in\n    tag_146:\n        /* \"#utility.yul\":7151:7230   */\n      tag_147\n        /* \"#utility.yul\":7223:7229   */\n      dup2\n        /* \"#utility.yul\":7218:7221   */\n      dup6\n        /* \"#utility.yul\":7151:7230   */\n      tag_52\n      jump\t// in\n    tag_147:\n        /* \"#utility.yul\":7144:7230   */\n      swap4\n      pop\n        /* \"#utility.yul\":7239:7304   */\n      tag_148\n        /* \"#utility.yul\":7297:7303   */\n      dup2\n        /* \"#utility.yul\":7292:7295   */\n      dup6\n        /* \"#utility.yul\":7285:7289   */\n      0x20\n        /* \"#utility.yul\":7278:7283   */\n      dup7\n        /* \"#utility.yul\":7274:7290   */\n      add\n        /* \"#utility.yul\":7239:7304   */\n      tag_53\n      jump\t// in\n    tag_148:\n        /* \"#utility.yul\":7329:7358   */\n      tag_149\n        /* \"#utility.yul\":7351:7357   */\n      dup2\n        /* \"#utility.yul\":7329:7358   */\n      tag_34\n      jump\t// in\n    tag_149:\n        /* \"#utility.yul\":7324:7327   */\n      dup5\n        /* \"#utility.yul\":7320:7359   */\n      add\n        /* \"#utility.yul\":7313:7359   */\n      swap2\n      pop\n        /* \"#utility.yul\":7072:7365   */\n      pop\n        /* \"#utility.yul\":6972:7365   */\n      swap3\n      swap2\n      pop\n      pop\n      jump\t// out\n        /* \"#utility.yul\":7371:7909   */\n    tag_18:\n        /* \"#utility.yul\":7540:7544   */\n      0x00\n        /* \"#utility.yul\":7578:7580   */\n      0x40\n        /* \"#utility.yul\":7567:7576   */\n      dup3\n        /* \"#utility.yul\":7563:7581   */\n      add\n        /* \"#utility.yul\":7555:7581   */\n      swap1\n      pop\n        /* \"#utility.yul\":7627:7636   */\n      dup2\n        /* \"#utility.yul\":7621:7625   */\n      dup2\n        /* \"#utility.yul\":7617:7637   */\n      sub\n        /* \"#utility.yul\":7613:7614   */\n      0x00\n        /* \"#utility.yul\":7602:7611   */\n      dup4\n        /* \"#utility.yul\":7598:7615   */\n      add\n        /* \"#utility.yul\":7591:7638   */\n      mstore\n        /* \"#utility.yul\":7655:7741   */\n      tag_151\n        /* \"#utility.yul\":7736:7740   */\n      dup2\n        /* \"#utility.yul\":7727:7733   */\n      dup6\n        /* \"#utility.yul\":7655:7741   */\n      tag_54\n      jump\t// in\n    tag_151:\n        /* \"#utility.yul\":7647:7741   */\n      swap1\n      pop\n        /* \"#utility.yul\":7788:7797   */\n      dup2\n        /* \"#utility.yul\":7782:7786   */\n      dup2\n        /* \"#utility.yul\":7778:7798   */\n      sub\n        /* \"#utility.yul\":7773:7775   */\n      0x20\n        /* \"#utility.yul\":7762:7771   */\n      dup4\n        /* \"#utility.yul\":7758:7776   */\n      add\n        /* \"#utility.yul\":7751:7799   */\n      mstore\n        /* \"#utility.yul\":7816:7902   */\n      tag_152\n        /* \"#utility.yul\":7897:7901   */\n      dup2\n        /* \"#utility.yul\":7888:7894   */\n      dup5\n        /* \"#utility.yul\":7816:7902   */\n      tag_54\n      jump\t// in\n    tag_152:\n        /* \"#utility.yul\":7808:7902   */\n      swap1\n      pop\n        /* \"#utility.yul\":7371:7909   */\n      swap4\n      swap3\n      pop\n      pop\n      pop\n      jump\t// out\n        /* \"#utility.yul\":7915:8031   */\n    tag_55:\n        /* \"#utility.yul\":7985:8006   */\n      tag_154\n        /* \"#utility.yul\":8000:8005   */\n      dup2\n        /* \"#utility.yul\":7985:8006   */\n      tag_42\n      jump\t// in\n    tag_154:\n        /* \"#utility.yul\":7978:7983   */\n      dup2\n        /* \"#utility.yul\":7975:8007   */\n      eq\n        /* \"#utility.yul\":7965:8025   */\n      tag_155\n      jumpi\n        /* \"#utility.yul\":8021:8022   */\n      0x00\n        /* \"#utility.yul\":8018:8019   */\n      dup1\n        /* \"#utility.yul\":8011:8023   */\n      revert\n        /* \"#utility.yul\":7965:8025   */\n    tag_155:\n        /* \"#utility.yul\":7915:8031   */\n      pop\n      jump\t// out\n        /* \"#utility.yul\":8037:8174   */\n    tag_56:\n        /* \"#utility.yul\":8091:8096   */\n      0x00\n        /* \"#utility.yul\":8122:8128   */\n      dup2\n        /* \"#utility.yul\":8116:8129   */\n      mload\n        /* \"#utility.yul\":8107:8129   */\n      swap1\n      pop\n        /* \"#utility.yul\":8138:8168   */\n      tag_157\n        /* \"#utility.yul\":8162:8167   */\n      dup2\n        /* \"#utility.yul\":8138:8168   */\n      tag_55\n      jump\t// in\n    tag_157:\n        /* \"#utility.yul\":8037:8174   */\n      swap3\n      swap2\n      pop\n      pop\n      jump\t// out\n        /* \"#utility.yul\":8180:8525   */\n    tag_22:\n        /* \"#utility.yul\":8247:8253   */\n      0x00\n        /* \"#utility.yul\":8296:8298   */\n      0x20\n        /* \"#utility.yul\":8284:8293   */\n      dup3\n        /* \"#utility.yul\":8275:8282   */\n      dup5\n        /* \"#utility.yul\":8271:8294   */\n      sub\n        /* \"#utility.yul\":8267:8299   */\n      slt\n        /* \"#utility.yul\":8264:8383   */\n      iszero\n      tag_159\n      jumpi\n        /* \"#utility.yul\":8302:8381   */\n      tag_160\n      tag_30\n      jump\t// in\n    tag_160:\n        /* \"#utility.yul\":8264:8383   */\n    tag_159:\n        /* \"#utility.yul\":8422:8423   */\n      0x00\n        /* \"#utility.yul\":8447:8508   */\n      tag_161\n        /* \"#utility.yul\":8500:8507   */\n      dup5\n        /* \"#utility.yul\":8491:8497   */\n      dup3\n        /* \"#utility.yul\":8480:8489   */\n      dup6\n        /* \"#utility.yul\":8476:8498   */\n      add\n        /* \"#utility.yul\":8447:8508   */\n      tag_56\n      jump\t// in\n    tag_161:\n        /* \"#utility.yul\":8437:8508   */\n      swap2\n      pop\n        /* \"#utility.yul\":8393:8518   */\n      pop\n        /* \"#utility.yul\":8180:8525   */\n      swap3\n      swap2\n      pop\n      pop\n      jump\t// out\n        /* \"#utility.yul\":8531:8645   */\n    tag_57:\n        /* \"#utility.yul\":8598:8604   */\n      0x00\n        /* \"#utility.yul\":8632:8637   */\n      dup2\n        /* \"#utility.yul\":8626:8638   */\n      mload\n        /* \"#utility.yul\":8616:8638   */\n      swap1\n      pop\n        /* \"#utility.yul\":8531:8645   */\n      swap2\n      swap1\n      pop\n      jump\t// out\n        /* \"#utility.yul\":8651:8843   */\n    tag_58:\n        /* \"#utility.yul\":8758:8769   */\n      0x00\n        /* \"#utility.yul\":8792:8798   */\n      dup3\n        /* \"#utility.yul\":8787:8790   */\n      dup3\n        /* \"#utility.yul\":8780:8799   */\n      mstore\n        /* \"#utility.yul\":8832:8836   */\n      0x20\n        /* \"#utility.yul\":8827:8830   */\n      dup3\n        /* \"#utility.yul\":8823:8837   */\n      add\n        /* \"#utility.yul\":8808:8837   */\n      swap1\n      pop\n        /* \"#utility.yul\":8651:8843   */\n      swap3\n      swap2\n      pop\n      pop\n      jump\t// out\n        /* \"#utility.yul\":8849:8981   */\n    tag_59:\n        /* \"#utility.yul\":8916:8920   */\n      0x00\n        /* \"#utility.yul\":8939:8942   */\n      dup2\n        /* \"#utility.yul\":8931:8942   */\n      swap1\n      pop\n        /* \"#utility.yul\":8969:8973   */\n      0x20\n        /* \"#utility.yul\":8964:8967   */\n      dup3\n        /* \"#utility.yul\":8960:8974   */\n      add\n        /* \"#utility.yul\":8952:8974   */\n      swap1\n      pop\n        /* \"#utility.yul\":8849:8981   */\n      swap2\n      swap1\n      pop\n      jump\t// out\n        /* \"#utility.yul\":8987:9103   */\n    tag_60:\n        /* \"#utility.yul\":9072:9096   */\n      tag_166\n        /* \"#utility.yul\":9090:9095   */\n      dup2\n        /* \"#utility.yul\":9072:9096   */\n      tag_46\n      jump\t// in\n    tag_166:\n        /* \"#utility.yul\":9067:9070   */\n      dup3\n        /* \"#utility.yul\":9060:9097   */\n      mstore\n        /* \"#utility.yul\":8987:9103   */\n      pop\n      pop\n      jump\t// out\n        /* \"#utility.yul\":9109:9304   */\n    tag_61:\n        /* \"#utility.yul\":9186:9196   */\n      0x00\n        /* \"#utility.yul\":9207:9261   */\n      tag_168\n        /* \"#utility.yul\":9257:9260   */\n      dup4\n        /* \"#utility.yul\":9249:9255   */\n      dup4\n        /* \"#utility.yul\":9207:9261   */\n      tag_60\n      jump\t// in\n    tag_168:\n        /* \"#utility.yul\":9293:9297   */\n      0x20\n        /* \"#utility.yul\":9288:9291   */\n      dup4\n        /* \"#utility.yul\":9284:9298   */\n      add\n        /* \"#utility.yul\":9270:9298   */\n      swap1\n      pop\n        /* \"#utility.yul\":9109:9304   */\n      swap3\n      swap2\n      pop\n      pop\n      jump\t// out\n        /* \"#utility.yul\":9310:9423   */\n    tag_62:\n        /* \"#utility.yul\":9380:9384   */\n      0x00\n        /* \"#utility.yul\":9412:9416   */\n      0x20\n        /* \"#utility.yul\":9407:9410   */\n      dup3\n        /* \"#utility.yul\":9403:9417   */\n      add\n        /* \"#utility.yul\":9395:9417   */\n      swap1\n      pop\n        /* \"#utility.yul\":9310:9423   */\n      swap2\n      swap1\n      pop\n      jump\t// out\n        /* \"#utility.yul\":9459:10215   */\n    tag_63:\n        /* \"#utility.yul\":9586:9589   */\n      0x00\n        /* \"#utility.yul\":9615:9669   */\n      tag_171\n        /* \"#utility.yul\":9663:9668   */\n      dup3\n        /* \"#utility.yul\":9615:9669   */\n      tag_57\n      jump\t// in\n    tag_171:\n        /* \"#utility.yul\":9685:9779   */\n      tag_172\n        /* \"#utility.yul\":9772:9778   */\n      dup2\n        /* \"#utility.yul\":9767:9770   */\n      dup6\n        /* \"#utility.yul\":9685:9779   */\n      tag_58\n      jump\t// in\n    tag_172:\n        /* \"#utility.yul\":9678:9779   */\n      swap4\n      pop\n        /* \"#utility.yul\":9803:9859   */\n      tag_173\n        /* \"#utility.yul\":9853:9858   */\n      dup4\n        /* \"#utility.yul\":9803:9859   */\n      tag_59\n      jump\t// in\n    tag_173:\n        /* \"#utility.yul\":9882:9889   */\n      dup1\n        /* \"#utility.yul\":9913:9914   */\n      0x00\n        /* \"#utility.yul\":9898:10190   */\n    tag_174:\n        /* \"#utility.yul\":9923:9929   */\n      dup4\n        /* \"#utility.yul\":9920:9921   */\n      dup2\n        /* \"#utility.yul\":9917:9930   */\n      lt\n        /* \"#utility.yul\":9898:10190   */\n      iszero\n      tag_176\n      jumpi\n        /* \"#utility.yul\":9999:10005   */\n      dup2\n        /* \"#utility.yul\":9993:10006   */\n      mload\n        /* \"#utility.yul\":10026:10097   */\n      tag_177\n        /* \"#utility.yul\":10093:10096   */\n      dup9\n        /* \"#utility.yul\":10078:10091   */\n      dup3\n        /* \"#utility.yul\":10026:10097   */\n      tag_61\n      jump\t// in\n    tag_177:\n        /* \"#utility.yul\":10019:10097   */\n      swap8\n      pop\n        /* \"#utility.yul\":10120:10180   */\n      tag_178\n        /* \"#utility.yul\":10173:10179   */\n      dup4\n        /* \"#utility.yul\":10120:10180   */\n      tag_62\n      jump\t// in\n    tag_178:\n        /* \"#utility.yul\":10110:10180   */\n      swap3\n      pop\n        /* \"#utility.yul\":9958:10190   */\n      pop\n        /* \"#utility.yul\":9945:9946   */\n      0x01\n        /* \"#utility.yul\":9942:9943   */\n      dup2\n        /* \"#utility.yul\":9938:9947   */\n      add\n        /* \"#utility.yul\":9933:9947   */\n      swap1\n      pop\n        /* \"#utility.yul\":9898:10190   */\n      jump(tag_174)\n    tag_176:\n        /* \"#utility.yul\":9902:9916   */\n      pop\n        /* \"#utility.yul\":10206:10209   */\n      dup6\n        /* \"#utility.yul\":10199:10209   */\n      swap4\n      pop\n        /* \"#utility.yul\":9591:10215   */\n      pop\n      pop\n      pop\n        /* \"#utility.yul\":9459:10215   */\n      swap3\n      swap2\n      pop\n      pop\n      jump\t// out\n        /* \"#utility.yul\":10221:10347   */\n    tag_64:\n        /* \"#utility.yul\":10316:10340   */\n      tag_180\n        /* \"#utility.yul\":10334:10339   */\n      dup2\n        /* \"#utility.yul\":10316:10340   */\n      tag_46\n      jump\t// in\n    tag_180:\n        /* \"#utility.yul\":10311:10314   */\n      dup3\n        /* \"#utility.yul\":10304:10341   */\n      mstore\n        /* \"#utility.yul\":10221:10347   */\n      pop\n      pop\n      jump\t// out\n        /* \"#utility.yul\":10353:10860   */\n    tag_25:\n        /* \"#utility.yul\":10532:10536   */\n      0x00\n        /* \"#utility.yul\":10570:10572   */\n      0x40\n        /* \"#utility.yul\":10559:10568   */\n      dup3\n        /* \"#utility.yul\":10555:10573   */\n      add\n        /* \"#utility.yul\":10547:10573   */\n      swap1\n      pop\n        /* \"#utility.yul\":10619:10628   */\n      dup2\n        /* \"#utility.yul\":10613:10617   */\n      dup2\n        /* \"#utility.yul\":10609:10629   */\n      sub\n        /* \"#utility.yul\":10605:10606   */\n      0x00\n        /* \"#utility.yul\":10594:10603   */\n      dup4\n        /* \"#utility.yul\":10590:10607   */\n      add\n        /* \"#utility.yul\":10583:10630   */\n      mstore\n        /* \"#utility.yul\":10647:10763   */\n      tag_182\n        /* \"#utility.yul\":10758:10762   */\n      dup2\n        /* \"#utility.yul\":10749:10755   */\n      dup6\n        /* \"#utility.yul\":10647:10763   */\n      tag_63\n      jump\t// in\n    tag_182:\n        /* \"#utility.yul\":10639:10763   */\n      swap1\n      pop\n        /* \"#utility.yul\":10773:10853   */\n      tag_183\n        /* \"#utility.yul\":10849:10851   */\n      0x20\n        /* \"#utility.yul\":10838:10847   */\n      dup4\n        /* \"#utility.yul\":10834:10852   */\n      add\n        /* \"#utility.yul\":10825:10831   */\n      dup5\n        /* \"#utility.yul\":10773:10853   */\n      tag_64\n      jump\t// in\n    tag_183:\n        /* \"#utility.yul\":10353:10860   */\n      swap4\n      swap3\n      pop\n      pop\n      pop\n      jump\t// out\n\n    auxdata: 0xa26469706673582212207cb04463b72f4f5d4fb5696398ffaf1450b9d13af68061a22377a5fdf27e128d64736f6c63430008180033\n}\n",
				"bytecode": {
					"linkReferences": {
						"contracts/Ext.sol": {
							"ArrayExt": [
								{
									"length": 20,
									"start": 314
								}
							],
							"StrExt": [
								{
									"length": 20,
									"start": 184
								}
							]
						}
					},
					"object": "608060405234801561000f575f80fd5b506107118061001d5f395ff3fe608060405234801561000f575f80fd5b5060043610610034575f3560e01c80637fbf828714610038578063bbd95c3214610068575b5f80fd5b610052600480360381019061004d91906102e9565b610098565b60405161005f9190610379565b60405180910390f35b610082600480360381019061007d9190610489565b610119565b60405161008f9190610379565b60405180910390f35b5f73__$4f16e78cabc57cc7ec85a3b60b3e9e6cb4$__6321a4964284846040518363ffffffff1660e01b81526004016100d292919061055d565b602060405180830381865af41580156100ed573d5f803e3d5ffd5b505050506040513d601f19601f8201168201806040525081019061011191906105bc565b905092915050565b5f8273__$b934df9e982d2a982ff0aef6f375a5866f$__63bbd95c329091846040518363ffffffff1660e01b81526004016101559291906106ad565b602060405180830381865af4158015610170573d5f803e3d5ffd5b505050506040513d601f19601f8201168201806040525081019061019491906105bc565b905092915050565b5f604051905090565b5f80fd5b5f80fd5b5f80fd5b5f80fd5b5f601f19601f8301169050919050565b7f4e487b71000000000000000000000000000000000000000000000000000000005f52604160045260245ffd5b6101fb826101b5565b810181811067ffffffffffffffff8211171561021a576102196101c5565b5b80604052505050565b5f61022c61019c565b905061023882826101f2565b919050565b5f67ffffffffffffffff821115610257576102566101c5565b5b610260826101b5565b9050602081019050919050565b828183375f83830152505050565b5f61028d6102888461023d565b610223565b9050828152602081018484840111156102a9576102a86101b1565b5b6102b484828561026d565b509392505050565b5f82601f8301126102d0576102cf6101ad565b5b81356102e084826020860161027b565b91505092915050565b5f80604083850312156102ff576102fe6101a5565b5b5f83013567ffffffffffffffff81111561031c5761031b6101a9565b5b610328858286016102bc565b925050602083013567ffffffffffffffff811115610349576103486101a9565b5b610355858286016102bc565b9150509250929050565b5f8115159050919050565b6103738161035f565b82525050565b5f60208201905061038c5f83018461036a565b92915050565b5f67ffffffffffffffff8211156103ac576103ab6101c5565b5b602082029050602081019050919050565b5f80fd5b5f819050919050565b6103d3816103c1565b81146103dd575f80fd5b50565b5f813590506103ee816103ca565b92915050565b5f61040661040184610392565b610223565b90508083825260208201905060208402830185811115610429576104286103bd565b5b835b81811015610452578061043e88826103e0565b84526020840193505060208101905061042b565b5050509392505050565b5f82601f8301126104705761046f6101ad565b5b81356104808482602086016103f4565b91505092915050565b5f806040838503121561049f5761049e6101a5565b5b5f83013567ffffffffffffffff8111156104bc576104bb6101a9565b5b6104c88582860161045c565b92505060206104d9858286016103e0565b9150509250929050565b5f81519050919050565b5f82825260208201905092915050565b5f5b8381101561051a5780820151818401526020810190506104ff565b5f8484015250505050565b5f61052f826104e3565b61053981856104ed565b93506105498185602086016104fd565b610552816101b5565b840191505092915050565b5f6040820190508181035f8301526105758185610525565b905081810360208301526105898184610525565b90509392505050565b61059b8161035f565b81146105a5575f80fd5b50565b5f815190506105b681610592565b92915050565b5f602082840312156105d1576105d06101a5565b5b5f6105de848285016105a8565b91505092915050565b5f81519050919050565b5f82825260208201905092915050565b5f819050602082019050919050565b610619816103c1565b82525050565b5f61062a8383610610565b60208301905092915050565b5f602082019050919050565b5f61064c826105e7565b61065681856105f1565b935061066183610601565b805f5b83811015610691578151610678888261061f565b975061068383610636565b925050600181019050610664565b5085935050505092915050565b6106a7816103c1565b82525050565b5f6040820190508181035f8301526106c58185610642565b90506106d4602083018461069e565b939250505056fea26469706673582212207cb04463b72f4f5d4fb5696398ffaf1450b9d13af68061a22377a5fdf27e128d64736f6c63430008180033",
					"opcodes": "PUSH1 0x80 PUSH1 0x40 MSTORE CALLVALUE DUP1 ISZERO PUSH2 0xF JUMPI PUSH0 DUP1 REVERT JUMPDEST POP PUSH2 0x711 DUP1 PUSH2 0x1D PUSH0 CODECOPY PUSH0 RETURN INVALID PUSH1 0x80 PUSH1 0x40 MSTORE CALLVALUE DUP1 ISZERO PUSH2 0xF JUMPI PUSH0 DUP1 REVERT JUMPDEST POP PUSH1 0x4 CALLDATASIZE LT PUSH2 0x34 JUMPI PUSH0 CALLDATALOAD PUSH1 0xE0 SHR DUP1 PUSH4 0x7FBF8287 EQ PUSH2 0x38 JUMPI DUP1 PUSH4 0xBBD95C32 EQ PUSH2 0x68 JUMPI JUMPDEST PUSH0 DUP1 REVERT JUMPDEST PUSH2 0x52 PUSH1 0x4 DUP1 CALLDATASIZE SUB DUP2 ADD SWAP1 PUSH2 0x4D SWAP2 SWAP1 PUSH2 0x2E9 JUMP JUMPDEST PUSH2 0x98 JUMP JUMPDEST PUSH1 0x40 MLOAD PUSH2 0x5F SWAP2 SWAP1 PUSH2 0x379 JUMP JUMPDEST PUSH1 0x40 MLOAD DUP1 SWAP2 SUB SWAP1 RETURN JUMPDEST PUSH2 0x82 PUSH1 0x4 DUP1 CALLDATASIZE SUB DUP2 ADD SWAP1 PUSH2 0x7D SWAP2 SWAP1 PUSH2 0x489 JUMP JUMPDEST PUSH2 0x119 JUMP JUMPDEST PUSH1 0x40 MLOAD PUSH2 0x8F SWAP2 SWAP1 PUSH2 0x379 JUMP JUMPDEST PUSH1 0x40 MLOAD DUP1 SWAP2 SUB SWAP1 RETURN JUMPDEST PUSH0 PUSH20 0x0 PUSH4 0x21A49642 DUP5 DUP5 PUSH1 0x40 MLOAD DUP4 PUSH4 0xFFFFFFFF AND PUSH1 0xE0 SHL DUP2 MSTORE PUSH1 0x4 ADD PUSH2 0xD2 SWAP3 SWAP2 SWAP1 PUSH2 0x55D JUMP JUMPDEST PUSH1 0x20 PUSH1 0x40 MLOAD DUP1 DUP4 SUB DUP2 DUP7 GAS DELEGATECALL ISZERO DUP1 ISZERO PUSH2 0xED JUMPI RETURNDATASIZE PUSH0 DUP1 RETURNDATACOPY RETURNDATASIZE PUSH0 REVERT JUMPDEST POP POP POP POP PUSH1 0x40 MLOAD RETURNDATASIZE PUSH1 0x1F NOT PUSH1 0x1F DUP3 ADD AND DUP3 ADD DUP1 PUSH1 0x40 MSTORE POP DUP2 ADD SWAP1 PUSH2 0x111 SWAP2 SWAP1 PUSH2 0x5BC JUMP JUMPDEST SWAP1 POP SWAP3 SWAP2 POP POP JUMP JUMPDEST PUSH0 DUP3 PUSH20 0x0 PUSH4 0xBBD95C32 SWAP1 SWAP2 DUP5 PUSH1 0x40 MLOAD DUP4 PUSH4 0xFFFFFFFF AND PUSH1 0xE0 SHL DUP2 MSTORE PUSH1 0x4 ADD PUSH2 0x155 SWAP3 SWAP2 SWAP1 PUSH2 0x6AD JUMP JUMPDEST PUSH1 0x20 PUSH1 0x40 MLOAD DUP1 DUP4 SUB DUP2 DUP7 GAS DELEGATECALL ISZERO DUP1 ISZERO PUSH2 0x170 JUMPI RETURNDATASIZE PUSH0 DUP1 RETURNDATACOPY RETURNDATASIZE PUSH0 REVERT JUMPDEST POP POP POP POP PUSH1 0x40 MLOAD RETURNDATASIZE PUSH1 0x1F NOT PUSH1 0x1F DUP3 ADD AND DUP3 ADD DUP1 PUSH1 0x40 MSTORE POP DUP2 ADD SWAP1 PUSH2 0x194 SWAP2 SWAP1 PUSH2 0x5BC JUMP JUMPDEST SWAP1 POP SWAP3 SWAP2 POP POP JUMP JUMPDEST PUSH0 PUSH1 0x40 MLOAD SWAP1 POP SWAP1 JUMP JUMPDEST PUSH0 DUP1 REVERT JUMPDEST PUSH0 DUP1 REVERT JUMPDEST PUSH0 DUP1 REVERT JUMPDEST PUSH0 DUP1 REVERT JUMPDEST PUSH0 PUSH1 0x1F NOT PUSH1 0x1F DUP4 ADD AND SWAP1 POP SWAP2 SWAP1 POP JUMP JUMPDEST PUSH32 0x4E487B7100000000000000000000000000000000000000000000000000000000 PUSH0 MSTORE PUSH1 0x41 PUSH1 0x4 MSTORE PUSH1 0x24 PUSH0 REVERT JUMPDEST PUSH2 0x1FB DUP3 PUSH2 0x1B5 JUMP JUMPDEST DUP2 ADD DUP2 DUP2 LT PUSH8 0xFFFFFFFFFFFFFFFF DUP3 GT OR ISZERO PUSH2 0x21A JUMPI PUSH2 0x219 PUSH2 0x1C5 JUMP JUMPDEST JUMPDEST DUP1 PUSH1 0x40 MSTORE POP POP POP JUMP JUMPDEST PUSH0 PUSH2 0x22C PUSH2 0x19C JUMP JUMPDEST SWAP1 POP PUSH2 0x238 DUP3 DUP3 PUSH2 0x1F2 JUMP JUMPDEST SWAP2 SWAP1 POP JUMP JUMPDEST PUSH0 PUSH8 0xFFFFFFFFFFFFFFFF DUP3 GT ISZERO PUSH2 0x257 JUMPI PUSH2 0x256 PUSH2 0x1C5 JUMP JUMPDEST JUMPDEST PUSH2 0x260 DUP3 PUSH2 0x1B5 JUMP JUMPDEST SWAP1 POP PUSH1 0x20 DUP2 ADD SWAP1 POP SWAP2 SWAP1 POP JUMP JUMPDEST DUP3 DUP2 DUP4 CALLDATACOPY PUSH0 DUP4 DUP4 ADD MSTORE POP POP POP JUMP JUMPDEST PUSH0 PUSH2 0x28D PUSH2 0x288 DUP5 PUSH2 0x23D JUMP JUMPDEST PUSH2 0x223 JUMP JUMPDEST SWAP1 POP DUP3 DUP2 MSTORE PUSH1 0x20 DUP2 ADD DUP5 DUP5 DUP5 ADD GT ISZERO PUSH2 0x2A9 JUMPI PUSH2 0x2A8 PUSH2 0x1B1 JUMP JUMPDEST JUMPDEST PUSH2 0x2B4 DUP5 DUP3 DUP6 PUSH2 0x26D JUMP JUMPDEST POP SWAP4 SWAP3 POP POP POP JUMP JUMPDEST PUSH0 DUP3 PUSH1 0x1F DUP4 ADD SLT PUSH2 0x2D0 JUMPI PUSH2 0x2CF PUSH2 0x1AD JUMP JUMPDEST JUMPDEST DUP2 CALLDATALOAD PUSH2 0x2E0 DUP5 DUP3 PUSH1 0x20 DUP7 ADD PUSH2 0x27B JUMP JUMPDEST SWAP2 POP POP SWAP3 SWAP2 POP POP JUMP JUMPDEST PUSH0 DUP1 PUSH1 0x40 DUP4 DUP6 SUB SLT ISZERO PUSH2 0x2FF JUMPI PUSH2 0x2FE PUSH2 0x1A5 JUMP JUMPDEST JUMPDEST PUSH0 DUP4 ADD CALLDATALOAD PUSH8 0xFFFFFFFFFFFFFFFF DUP2 GT ISZERO PUSH2 0x31C JUMPI PUSH2 0x31B PUSH2 0x1A9 JUMP JUMPDEST JUMPDEST PUSH2 0x328 DUP6 DUP3 DUP7 ADD PUSH2 0x2BC JUMP JUMPDEST SWAP3 POP POP PUSH1 0x20 DUP4 ADD CALLDATALOAD PUSH8 0xFFFFFFFFFFFFFFFF DUP2 GT ISZERO PUSH2 0x349 JUMPI PUSH2 0x348 PUSH2 0x1A9 JUMP JUMPDEST JUMPDEST PUSH2 0x355 DUP6 DUP3 DUP7 ADD PUSH2 0x2BC JUMP JUMPDEST SWAP2 POP POP SWAP3 POP SWAP3 SWAP1 POP JUMP JUMPDEST PUSH0 DUP2 ISZERO ISZERO SWAP1 POP SWAP2 SWAP1 POP JUMP JUMPDEST PUSH2 0x373 DUP2 PUSH2 0x35F JUMP JUMPDEST DUP3 MSTORE POP POP JUMP JUMPDEST PUSH0 PUSH1 0x20 DUP3 ADD SWAP1 POP PUSH2 0x38C PUSH0 DUP4 ADD DUP5 PUSH2 0x36A JUMP JUMPDEST SWAP3 SWAP2 POP POP JUMP JUMPDEST PUSH0 PUSH8 0xFFFFFFFFFFFFFFFF DUP3 GT ISZERO PUSH2 0x3AC JUMPI PUSH2 0x3AB PUSH2 0x1C5 JUMP JUMPDEST JUMPDEST PUSH1 0x20 DUP3 MUL SWAP1 POP PUSH1 0x20 DUP2 ADD SWAP1 POP SWAP2 SWAP1 POP JUMP JUMPDEST PUSH0 DUP1 REVERT JUMPDEST PUSH0 DUP2 SWAP1 POP SWAP2 SWAP1 POP JUMP JUMPDEST PUSH2 0x3D3 DUP2 PUSH2 0x3C1 JUMP JUMPDEST DUP2 EQ PUSH2 0x3DD JUMPI PUSH0 DUP1 REVERT JUMPDEST POP JUMP JUMPDEST PUSH0 DUP2 CALLDATALOAD SWAP1 POP PUSH2 0x3EE DUP2 PUSH2 0x3CA JUMP JUMPDEST SWAP3 SWAP2 POP POP JUMP JUMPDEST PUSH0 PUSH2 0x406 PUSH2 0x401 DUP5 PUSH2 0x392 JUMP JUMPDEST PUSH2 0x223 JUMP JUMPDEST SWAP1 POP DUP1 DUP4 DUP3 MSTORE PUSH1 0x20 DUP3 ADD SWAP1 POP PUSH1 0x20 DUP5 MUL DUP4 ADD DUP6 DUP2 GT ISZERO PUSH2 0x429 JUMPI PUSH2 0x428 PUSH2 0x3BD JUMP JUMPDEST JUMPDEST DUP4 JUMPDEST DUP2 DUP2 LT ISZERO PUSH2 0x452 JUMPI DUP1 PUSH2 0x43E DUP9 DUP3 PUSH2 0x3E0 JUMP JUMPDEST DUP5 MSTORE PUSH1 0x20 DUP5 ADD SWAP4 POP POP PUSH1 0x20 DUP2 ADD SWAP1 POP PUSH2 0x42B JUMP JUMPDEST POP POP POP SWAP4 SWAP3 POP POP POP JUMP JUMPDEST PUSH0 DUP3 PUSH1 0x1F DUP4 ADD SLT PUSH2 0x470 JUMPI PUSH2 0x46F PUSH2 0x1AD JUMP JUMPDEST JUMPDEST DUP2 CALLDATALOAD PUSH2 0x480 DUP5 DUP3 PUSH1 0x20 DUP7 ADD PUSH2 0x3F4 JUMP JUMPDEST SWAP2 POP POP SWAP3 SWAP2 POP POP JUMP JUMPDEST PUSH0 DUP1 PUSH1 0x40 DUP4 DUP6 SUB SLT ISZERO PUSH2 0x49F JUMPI PUSH2 0x49E PUSH2 0x1A5 JUMP JUMPDEST JUMPDEST PUSH0 DUP4 ADD CALLDATALOAD PUSH8 0xFFFFFFFFFFFFFFFF DUP2 GT ISZERO PUSH2 0x4BC JUMPI PUSH2 0x4BB PUSH2 0x1A9 JUMP JUMPDEST JUMPDEST PUSH2 0x4C8 DUP6 DUP3 DUP7 ADD PUSH2 0x45C JUMP JUMPDEST SWAP3 POP POP PUSH1 0x20 PUSH2 0x4D9 DUP6 DUP3 DUP7 ADD PUSH2 0x3E0 JUMP JUMPDEST SWAP2 POP POP SWAP3 POP SWAP3 SWAP1 POP JUMP JUMPDEST PUSH0 DUP2 MLOAD SWAP1 POP SWAP2 SWAP1 POP JUMP JUMPDEST PUSH0 DUP3 DUP3 MSTORE PUSH1 0x20 DUP3 ADD SWAP1 POP SWAP3 SWAP2 POP POP JUMP JUMPDEST PUSH0 JUMPDEST DUP4 DUP2 LT ISZERO PUSH2 0x51A JUMPI DUP1 DUP3 ADD MLOAD DUP2 DUP5 ADD MSTORE PUSH1 0x20 DUP2 ADD SWAP1 POP PUSH2 0x4FF JUMP JUMPDEST PUSH0 DUP5 DUP5 ADD MSTORE POP POP POP POP JUMP JUMPDEST PUSH0 PUSH2 0x52F DUP3 PUSH2 0x4E3 JUMP JUMPDEST PUSH2 0x539 DUP2 DUP6 PUSH2 0x4ED JUMP JUMPDEST SWAP4 POP PUSH2 0x549 DUP2 DUP6 PUSH1 0x20 DUP7 ADD PUSH2 0x4FD JUMP JUMPDEST PUSH2 0x552 DUP2 PUSH2 0x1B5 JUMP JUMPDEST DUP5 ADD SWAP2 POP POP SWAP3 SWAP2 POP POP JUMP JUMPDEST PUSH0 PUSH1 0x40 DUP3 ADD SWAP1 POP DUP2 DUP2 SUB PUSH0 DUP4 ADD MSTORE PUSH2 0x575 DUP2 DUP6 PUSH2 0x525 JUMP JUMPDEST SWAP1 POP DUP2 DUP2 SUB PUSH1 0x20 DUP4 ADD MSTORE PUSH2 0x589 DUP2 DUP5 PUSH2 0x525 JUMP JUMPDEST SWAP1 POP SWAP4 SWAP3 POP POP POP JUMP JUMPDEST PUSH2 0x59B DUP2 PUSH2 0x35F JUMP JUMPDEST DUP2 EQ PUSH2 0x5A5 JUMPI PUSH0 DUP1 REVERT JUMPDEST POP JUMP JUMPDEST PUSH0 DUP2 MLOAD SWAP1 POP PUSH2 0x5B6 DUP2 PUSH2 0x592 JUMP JUMPDEST SWAP3 SWAP2 POP POP JUMP JUMPDEST PUSH0 PUSH1 0x20 DUP3 DUP5 SUB SLT ISZERO PUSH2 0x5D1 JUMPI PUSH2 0x5D0 PUSH2 0x1A5 JUMP JUMPDEST JUMPDEST PUSH0 PUSH2 0x5DE DUP5 DUP3 DUP6 ADD PUSH2 0x5A8 JUMP JUMPDEST SWAP2 POP POP SWAP3 SWAP2 POP POP JUMP JUMPDEST PUSH0 DUP2 MLOAD SWAP1 POP SWAP2 SWAP1 POP JUMP JUMPDEST PUSH0 DUP3 DUP3 MSTORE PUSH1 0x20 DUP3 ADD SWAP1 POP SWAP3 SWAP2 POP POP JUMP JUMPDEST PUSH0 DUP2 SWAP1 POP PUSH1 0x20 DUP3 ADD SWAP1 POP SWAP2 SWAP1 POP JUMP JUMPDEST PUSH2 0x619 DUP2 PUSH2 0x3C1 JUMP JUMPDEST DUP3 MSTORE POP POP JUMP JUMPDEST PUSH0 PUSH2 0x62A DUP4 DUP4 PUSH2 0x610 JUMP JUMPDEST PUSH1 0x20 DUP4 ADD SWAP1 POP SWAP3 SWAP2 POP POP JUMP JUMPDEST PUSH0 PUSH1 0x20 DUP3 ADD SWAP1 POP SWAP2 SWAP1 POP JUMP JUMPDEST PUSH0 PUSH2 0x64C DUP3 PUSH2 0x5E7 JUMP JUMPDEST PUSH2 0x656 DUP2 DUP6 PUSH2 0x5F1 JUMP JUMPDEST SWAP4 POP PUSH2 0x661 DUP4 PUSH2 0x601 JUMP JUMPDEST DUP1 PUSH0 JUMPDEST DUP4 DUP2 LT ISZERO PUSH2 0x691 JUMPI DUP2 MLOAD PUSH2 0x678 DUP9 DUP3 PUSH2 0x61F JUMP JUMPDEST SWAP8 POP PUSH2 0x683 DUP4 PUSH2 0x636 JUMP JUMPDEST SWAP3 POP POP PUSH1 0x1 DUP2 ADD SWAP1 POP PUSH2 0x664 JUMP JUMPDEST POP DUP6 SWAP4 POP POP POP POP SWAP3 SWAP2 POP POP JUMP JUMPDEST PUSH2 0x6A7 DUP2 PUSH2 0x3C1 JUMP JUMPDEST DUP3 MSTORE POP POP JUMP JUMPDEST PUSH0 PUSH1 0x40 DUP3 ADD SWAP1 POP DUP2 DUP2 SUB PUSH0 DUP4 ADD MSTORE PUSH2 0x6C5 DUP2 DUP6 PUSH2 0x642 JUMP JUMPDEST SWAP1 POP PUSH2 0x6D4 PUSH1 0x20 DUP4 ADD DUP5 PUSH2 0x69E JUMP JUMPDEST SWAP4 SWAP3 POP POP POP JUMP INVALID LOG2 PUSH5 0x6970667358 0x22 SLT KECCAK256 PUSH29 0xB04463B72F4F5D4FB5696398FFAF1450B9D13AF68061A22377A5FDF27E SLT DUP14 PUSH5 0x736F6C6343 STOP ADDMOD XOR STOP CALLER "
				},
				"gasEstimates": {
					"creation": {
						"codeDepositCost": "361800",
						"executionCost": "397",
						"totalCost": "362197"
					},
					"external": {
						"inArray(uint256[],uint256)": "infinite",
						"runnerStr(string,string)": "infinite"
					}
				},
				"methodIdentifiers": {
					"inArray(uint256[],uint256)": "bbd95c32",
					"runnerStr(string,string)": "7fbf8287"
				}
			},
			"storageLayout": {
				"storage": [],
				"types": null
			},
			"userdoc": {
				"kind": "user",
				"methods": {},
				"version": 1
			}
		}
	}
}